{
  "transactions": [
    {
      "hash": "0x8c3abfe93a24e51a69f5cc3dfa019575562aaa8bc19f69355a73a3721c51a10e",
      "transactionType": "CALL",
      "contractName": null,
      "contractAddress": "0x5ce8d5a2bc84beb22a398cca51996f7930313d61",
      "function": "addConsumer(uint256,address)",
      "arguments": [
        "48053523670873976610627921779348380949036316666296525076259056347219357444242",
        "0xF4Abd3F1eF0298fd3f02908114Fd139b6750d6c6"
      ],
      "transaction": {
        "from": "0x110f373077e47a5198102434bba47f3bcf69c22e",
        "to": "0x5ce8d5a2bc84beb22a398cca51996f7930313d61",
        "gas": "0x1e83f",
        "value": "0x0",
        "input": "0xbec4c08c6a3d549f9f4184fad3886661aec87a03f24a7b89bc930397730d7241b88da892000000000000000000000000f4abd3f1ef0298fd3f02908114fd139b6750d6c6",
        "nonce": "0x6",
        "chainId": "0x66eee"
      },
      "additionalContracts": [],
      "isFixedGasLimit": false
    }
  ],
  "receipts": [
    {
      "status": "0x1",
      "cumulativeGasUsed": "0x173d2",
      "logs": [
        {
          "address": "0x5ce8d5a2bc84beb22a398cca51996f7930313d61",
          "topics": [
            "0x1e980d04aa7648e205713e5e8ea3808672ac163d10936d36f91b2c88ac1575e1",
            "0x6a3d549f9f4184fad3886661aec87a03f24a7b89bc930397730d7241b88da892"
          ],
          "data": "0x000000000000000000000000f4abd3f1ef0298fd3f02908114fd139b6750d6c6",
          "blockHash": "0x10c5f54d13c9ca1d307bde30012a229042f4dab587b7e5dd72cc1b68f3c76350",
          "blockNumber": "0xd90c36d",
          "blockTimestamp": "0x694d61c9",
          "transactionHash": "0x8c3abfe93a24e51a69f5cc3dfa019575562aaa8bc19f69355a73a3721c51a10e",
          "transactionIndex": "0x1",
          "logIndex": "0x0",
          "removed": false
        }
      ],
      "logsBloom": "0x000000000000000000000000000000800000000000000000000a0000000000000000000000000000000000000000000000000001000000000000000000000000000002000000000000000000000000000000000000000001000000000000000000000000000000000000000000000000000000000004000000002000000000000000000000000000000000000000000000000000000000000000000000000000000000000000000000000000000000000000000000000000000000000000000000000000000000000000000000000000000000000000000000000000000000000000000000000000000000400000000000000000000000000000000000000000",
      "type": "0x2",
      "transactionHash": "0x8c3abfe93a24e51a69f5cc3dfa019575562aaa8bc19f69355a73a3721c51a10e",
      "transactionIndex": "0x1",
      "blockHash": "0x10c5f54d13c9ca1d307bde30012a229042f4dab587b7e5dd72cc1b68f3c76350",
      "blockNumber": "0xd90c36d",
      "gasUsed": "0x173d2",
      "effectiveGasPrice": "0x1312d00",
      "from": "0x110f373077e47a5198102434bba47f3bcf69c22e",
      "to": "0x5ce8d5a2bc84beb22a398cca51996f7930313d61",
      "contractAddress": null,
      "gasUsedForL1": "0x0",
      "l1BlockNumber": "0x974189",
      "timeboosted": false
    }
  ],
  "libraries": [],
  "pending": [],
  "returns": {},
  "timestamp": 1766678986262,
  "chain": 421614,
  "commit": "779c617"
}