{
  "transactions": [
    {
      "hash": "0x6be2d1271719897949432bf6b1a30d7647d59b1c4fd47e03cfff2c8594e1d8d4",
      "transactionType": "CALL",
      "contractName": null,
      "contractAddress": "0xf4abd3f1ef0298fd3f02908114fd139b6750d6c6",
      "function": "updateVRFConfig((address,uint256,uint32,bytes32,uint16))",
      "arguments": [
        "(0x5CE8D5A2BC84beb22a398CCA51996F7930313D61, 48053523670873976610627921779348380949036316666296525076259056347219357444242, 500000, 0x1770bdc7eec7771f7ba4ffd640f34260d7f095b79c92d34a5b2551d6f6cfd2be, 3)"
      ],
      "transaction": {
        "from": "0x110f373077e47a5198102434bba47f3bcf69c22e",
        "to": "0xf4abd3f1ef0298fd3f02908114fd139b6750d6c6",
        "gas": "0x10ef5",
        "value": "0x0",
        "input": "0xebebb38f0000000000000000000000005ce8d5a2bc84beb22a398cca51996f7930313d616a3d549f9f4184fad3886661aec87a03f24a7b89bc930397730d7241b88da892000000000000000000000000000000000000000000000000000000000007a1201770bdc7eec7771f7ba4ffd640f34260d7f095b79c92d34a5b2551d6f6cfd2be0000000000000000000000000000000000000000000000000000000000000003",
        "nonce": "0x7",
        "chainId": "0x66eee"
      },
      "additionalContracts": [],
      "isFixedGasLimit": false
    }
  ],
  "receipts": [
    {
      "status": "0x1",
      "cumulativeGasUsed": "0xc431",
      "logs": [],
      "logsBloom": "0x00000000000000000000000000000000000000000000000000000000000000000000000000000000000000000000000000000000000000000000000000000000000000000000000000000000000000000000000000000000000000000000000000000000000000000000000000000000000000000000000000000000000000000000000000000000000000000000000000000000000000000000000000000000000000000000000000000000000000000000000000000000000000000000000000000000000000000000000000000000000000000000000000000000000000000000000000000000000000000000000000000000000000000000000000000000",
      "type": "0x2",
      "transactionHash": "0x6be2d1271719897949432bf6b1a30d7647d59b1c4fd47e03cfff2c8594e1d8d4",
      "transactionIndex": "0x1",
      "blockHash": "0x71af7ee987b68c6270a79853e0606b0d9d3c41ca7656fee53a40fae2a144ec67",
      "blockNumber": "0xd90c479",
      "gasUsed": "0xc431",
      "effectiveGasPrice": "0x1312d00",
      "from": "0x110f373077e47a5198102434bba47f3bcf69c22e",
      "to": "0xf4abd3f1ef0298fd3f02908114fd139b6750d6c6",
      "contractAddress": null,
      "gasUsedForL1": "0x0",
      "l1BlockNumber": "0x97418f",
      "timeboosted": false
    }
  ],
  "libraries": [],
  "pending": [],
  "returns": {},
  "timestamp": 1766679058125,
  "chain": 421614,
  "commit": "779c617"
}