{
  "transactions": [
    {
      "hash": "0xe54fa9a11b873f721799b1378451d23283e9d237eadd392a635a173ce5f85fe2",
      "transactionType": "CALL",
      "contractName": null,
      "contractAddress": "0xcc4ad4856222044af187e7275820bc4367a0fddf",
      "function": "mint(address,uint256)",
      "arguments": [
        "0x110F373077e47A5198102434BbA47F3bcf69c22e",
        "100000000000000000000000"
      ],
      "transaction": {
        "from": "0x110f373077e47a5198102434bba47f3bcf69c22e",
        "to": "0xcc4ad4856222044af187e7275820bc4367a0fddf",
        "gas": "0xafb9",
        "value": "0x0",
        "input": "0x40c10f19000000000000000000000000110f373077e47a5198102434bba47f3bcf69c22e00000000000000000000000000000000000000000000152d02c7e14af6800000",
        "nonce": "0x8",
        "chainId": "0x66eee"
      },
      "additionalContracts": [],
      "isFixedGasLimit": false
    }
  ],
  "receipts": [
    {
      "status": "0x1",
      "cumulativeGasUsed": "0x85c5",
      "logs": [
        {
          "address": "0xcc4ad4856222044af187e7275820bc4367a0fddf",
          "topics": [
            "0xddf252ad1be2c89b69c2b068fc378daa952ba7f163c4a11628f55a4df523b3ef",
            "0x0000000000000000000000000000000000000000000000000000000000000000",
            "0x000000000000000000000000110f373077e47a5198102434bba47f3bcf69c22e"
          ],
          "data": "0x00000000000000000000000000000000000000000000152d02c7e14af6800000",
          "blockHash": "0x6f0a4289d8ef0aa4d9ac6056e8aaacfa1ffaab7063824c164bde0a6f39b4249e",
          "blockNumber": "0xd90c9fe",
          "blockTimestamp": "0x694d63b2",
          "transactionHash": "0xe54fa9a11b873f721799b1378451d23283e9d237eadd392a635a173ce5f85fe2",
          "transactionIndex": "0x1",
          "logIndex": "0x0",
          "removed": false
        }
      ],
      "logsBloom": "0x00000000000000000000000000000000000000000000000000000000000000000000000000000000000000000000000000000000000000000000000000000000000000000000000000000008000000000000000400000000000000000000000000000000020000000000000000000800000000000000000000000010000000000008000001000000000000000000000000000000000000000000000000000000000000000000000000000000000000000000000000000000000000000000000000000002002000000000000000000000000000000000000000000000000020000000000000000000000000000000000000000000000000000000000001000004",
      "type": "0x2",
      "transactionHash": "0xe54fa9a11b873f721799b1378451d23283e9d237eadd392a635a173ce5f85fe2",
      "transactionIndex": "0x1",
      "blockHash": "0x6f0a4289d8ef0aa4d9ac6056e8aaacfa1ffaab7063824c164bde0a6f39b4249e",
      "blockNumber": "0xd90c9fe",
      "gasUsed": "0x85c5",
      "effectiveGasPrice": "0x1315be0",
      "from": "0x110f373077e47a5198102434bba47f3bcf69c22e",
      "to": "0xcc4ad4856222044af187e7275820bc4367a0fddf",
      "contractAddress": null,
      "gasUsedForL1": "0x0",
      "l1BlockNumber": "0x9741af",
      "timeboosted": false
    }
  ],
  "libraries": [],
  "pending": [],
  "returns": {},
  "timestamp": 1766679477273,
  "chain": 421614,
  "commit": "779c617"
}